{
  "_format": "hh-sol-artifact-1",
  "contractName": "SubscriptionService",
  "sourceName": "contracts/SubscriptionService.sol",
  "abi": [
    {
      "inputs": [
        {
          "internalType": "uint256",
          "name": "_fee",
          "type": "uint256"
        },
        {
          "internalType": "uint256",
          "name": "_duration",
          "type": "uint256"
        }
      ],
      "stateMutability": "nonpayable",
      "type": "constructor"
    },
    {
      "anonymous": false,
      "inputs": [
        {
          "indexed": true,
          "internalType": "address",
          "name": "user",
          "type": "address"
        },
        {
          "indexed": false,
          "internalType": "uint256",
          "name": "expiry",
          "type": "uint256"
        }
      ],
      "name": "SubscriptionPurchased",
      "type": "event"
    },
    {
      "anonymous": false,
      "inputs": [
        {
          "indexed": true,
          "internalType": "address",
          "name": "user",
          "type": "address"
        },
        {
          "indexed": false,
          "internalType": "uint256",
          "name": "newExpiry",
          "type": "uint256"
        }
      ],
      "name": "SubscriptionRenewed",
      "type": "event"
    },
    {
      "inputs": [
        {
          "internalType": "address",
          "name": "_user",
          "type": "address"
        }
      ],
      "name": "hasActiveSubscription",
      "outputs": [
        {
          "internalType": "bool",
          "name": "",
          "type": "bool"
        }
      ],
      "stateMutability": "view",
      "type": "function"
    },
    {
      "inputs": [],
      "name": "owner",
      "outputs": [
        {
          "internalType": "address",
          "name": "",
          "type": "address"
        }
      ],
      "stateMutability": "view",
      "type": "function"
    },
    {
      "inputs": [],
      "name": "purchaseSubscription",
      "outputs": [],
      "stateMutability": "payable",
      "type": "function"
    },
    {
      "inputs": [],
      "name": "renewSubscription",
      "outputs": [],
      "stateMutability": "payable",
      "type": "function"
    },
    {
      "inputs": [
        {
          "internalType": "uint256",
          "name": "_duration",
          "type": "uint256"
        }
      ],
      "name": "setSubscriptionDuration",
      "outputs": [],
      "stateMutability": "nonpayable",
      "type": "function"
    },
    {
      "inputs": [
        {
          "internalType": "uint256",
          "name": "_fee",
          "type": "uint256"
        }
      ],
      "name": "setSubscriptionFee",
      "outputs": [],
      "stateMutability": "nonpayable",
      "type": "function"
    },
    {
      "inputs": [
        {
          "internalType": "address",
          "name": "",
          "type": "address"
        }
      ],
      "name": "subscribers",
      "outputs": [
        {
          "internalType": "uint256",
          "name": "expiry",
          "type": "uint256"
        }
      ],
      "stateMutability": "view",
      "type": "function"
    },
    {
      "inputs": [],
      "name": "subscriptionDuration",
      "outputs": [
        {
          "internalType": "uint256",
          "name": "",
          "type": "uint256"
        }
      ],
      "stateMutability": "view",
      "type": "function"
    },
    {
      "inputs": [],
      "name": "subscriptionFee",
      "outputs": [
        {
          "internalType": "uint256",
          "name": "",
          "type": "uint256"
        }
      ],
      "stateMutability": "view",
      "type": "function"
    },
    {
      "inputs": [],
      "name": "withdrawFunds",
      "outputs": [],
      "stateMutability": "nonpayable",
      "type": "function"
    }
  ],
  "bytecode": "0x608060405234801561001057600080fd5b50604051610d1e380380610d1e833981810160405281019061003291906100c2565b336000806101000a81548173ffffffffffffffffffffffffffffffffffffffff021916908373ffffffffffffffffffffffffffffffffffffffff16021790555081600181905550806002819055505050610102565b600080fd5b6000819050919050565b61009f8161008c565b81146100aa57600080fd5b50565b6000815190506100bc81610096565b92915050565b600080604083850312156100d9576100d8610087565b5b60006100e7858286016100ad565b92505060206100f8858286016100ad565b9150509250929050565b610c0d806101116000396000f3fe6080604052600436106100915760003560e01c80637a94a633116100595780637a94a633146101485780638da5cb5b14610173578063bebe4a571461019e578063cac3c4d2146101db578063db1bed221461020457610091565b80630aa0a1751461009657806324600fc3146100c15780635745ae28146100d85780636ac84956146101155780636e3079811461013e575b600080fd5b3480156100a257600080fd5b506100ab61020e565b6040516100b8919061084f565b60405180910390f35b3480156100cd57600080fd5b506100d6610214565b005b3480156100e457600080fd5b506100ff60048036038101906100fa91906108cd565b61030b565b60405161010c919061084f565b60405180910390f35b34801561012157600080fd5b5061013c60048036038101906101379190610926565b610329565b005b6101466103c1565b005b34801561015457600080fd5b5061015d610577565b60405161016a919061084f565b60405180910390f35b34801561017f57600080fd5b5061018861057d565b6040516101959190610962565b60405180910390f35b3480156101aa57600080fd5b506101c560048036038101906101c091906108cd565b6105a1565b6040516101d29190610998565b60405180910390f35b3480156101e757600080fd5b5061020260048036038101906101fd9190610926565b6105f0565b005b61020c610688565b005b60015481565b60008054906101000a900473ffffffffffffffffffffffffffffffffffffffff1673ffffffffffffffffffffffffffffffffffffffff163373ffffffffffffffffffffffffffffffffffffffff16146102a2576040517f08c379a000000000000000000000000000000000000000000000000000000000815260040161029990610a10565b60405180910390fd5b60008054906101000a900473ffffffffffffffffffffffffffffffffffffffff1673ffffffffffffffffffffffffffffffffffffffff166108fc479081150290604051600060405180830381858888f19350505050158015610308573d6000803e3d6000fd5b50565b60036020528060005260406000206000915090508060000154905081565b60008054906101000a900473ffffffffffffffffffffffffffffffffffffffff1673ffffffffffffffffffffffffffffffffffffffff163373ffffffffffffffffffffffffffffffffffffffff16146103b7576040517f08c379a00000000000000000000000000000000000000000000000000000000081526004016103ae90610a10565b60405180910390fd5b8060018190555050565b6001543414610405576040517f08c379a00000000000000000000000000000000000000000000000000000000081526004016103fc90610a7c565b60405180910390fd5b42600360003373ffffffffffffffffffffffffffffffffffffffff1673ffffffffffffffffffffffffffffffffffffffff16815260200190815260200160002060000154101561048a576040517f08c379a000000000000000000000000000000000000000000000000000000000815260040161048190610ae8565b60405180910390fd5b600254600360003373ffffffffffffffffffffffffffffffffffffffff1673ffffffffffffffffffffffffffffffffffffffff16815260200190815260200160002060000160008282546104de9190610b37565b925050819055503373ffffffffffffffffffffffffffffffffffffffff167f0e3bc79b6527253ae333c773455df588f62bcc1ad9726d42dbdc179356232a60600360003373ffffffffffffffffffffffffffffffffffffffff1673ffffffffffffffffffffffffffffffffffffffff1681526020019081526020016000206000015460405161056d919061084f565b60405180910390a2565b60025481565b60008054906101000a900473ffffffffffffffffffffffffffffffffffffffff1681565b600042600360008473ffffffffffffffffffffffffffffffffffffffff1673ffffffffffffffffffffffffffffffffffffffff1681526020019081526020016000206000015410159050919050565b60008054906101000a900473ffffffffffffffffffffffffffffffffffffffff1673ffffffffffffffffffffffffffffffffffffffff163373ffffffffffffffffffffffffffffffffffffffff161461067e576040517f08c379a000000000000000000000000000000000000000000000000000000000815260040161067590610a10565b60405180910390fd5b8060028190555050565b60015434146106cc576040517f08c379a00000000000000000000000000000000000000000000000000000000081526004016106c390610a7c565b60405180910390fd5b42600360003373ffffffffffffffffffffffffffffffffffffffff1673ffffffffffffffffffffffffffffffffffffffff1681526020019081526020016000206000015410610750576040517f08c379a000000000000000000000000000000000000000000000000000000000815260040161074790610bb7565b60405180910390fd5b6002544261075e9190610b37565b600360003373ffffffffffffffffffffffffffffffffffffffff1673ffffffffffffffffffffffffffffffffffffffff168152602001908152602001600020600001819055503373ffffffffffffffffffffffffffffffffffffffff167f799bcc5d05a0d37fc0012dba6e154d1353b3b36495bf076daf88f7b1428a3f81600360003373ffffffffffffffffffffffffffffffffffffffff1673ffffffffffffffffffffffffffffffffffffffff1681526020019081526020016000206000015460405161082c919061084f565b60405180910390a2565b6000819050919050565b61084981610836565b82525050565b60006020820190506108646000830184610840565b92915050565b600080fd5b600073ffffffffffffffffffffffffffffffffffffffff82169050919050565b600061089a8261086f565b9050919050565b6108aa8161088f565b81146108b557600080fd5b50565b6000813590506108c7816108a1565b92915050565b6000602082840312156108e3576108e261086a565b5b60006108f1848285016108b8565b91505092915050565b61090381610836565b811461090e57600080fd5b50565b600081359050610920816108fa565b92915050565b60006020828403121561093c5761093b61086a565b5b600061094a84828501610911565b91505092915050565b61095c8161088f565b82525050565b60006020820190506109776000830184610953565b92915050565b60008115159050919050565b6109928161097d565b82525050565b60006020820190506109ad6000830184610989565b92915050565b600082825260208201905092915050565b7f4f6e6c79206f776e65722063616e2063616c6c20746869730000000000000000600082015250565b60006109fa6018836109b3565b9150610a05826109c4565b602082019050919050565b60006020820190508181036000830152610a29816109ed565b9050919050565b7f496e636f7272656374207061796d656e74000000000000000000000000000000600082015250565b6000610a666011836109b3565b9150610a7182610a30565b602082019050919050565b60006020820190508181036000830152610a9581610a59565b9050919050565b7f537562736372697074696f6e2068617320657870697265640000000000000000600082015250565b6000610ad26018836109b3565b9150610add82610a9c565b602082019050919050565b60006020820190508181036000830152610b0181610ac5565b9050919050565b7f4e487b7100000000000000000000000000000000000000000000000000000000600052601160045260246000fd5b6000610b4282610836565b9150610b4d83610836565b9250828201905080821115610b6557610b64610b08565b5b92915050565b7f416c726561647920737562736372696265640000000000000000000000000000600082015250565b6000610ba16012836109b3565b9150610bac82610b6b565b602082019050919050565b60006020820190508181036000830152610bd081610b94565b905091905056fea264697066735822122048443cd4cd824f81f7523bf98667c7447e15180c94c124cf8a7b7887d42f596864736f6c63430008180033",
  "linkReferences": {},
  "deployedLinkReferences": {}
}